:03000000020200F9
:1002000075A00075900F518C518C5121518C518CDF
:10021000518C7482515E518C900300517E518CA19F
:100220000075A038C280C281D282518CC282518CAA
:1002300075A00CC280C281D282518CC282518C7551
:10024000A001C280C281D282518CC282518C75A021
:1002500006C280C281D282518CC282518C22F5A00A
:10026000C280C281D282518CC282518C22F5A0D22E
:1002700080C281D282518CC282518C518C22C0E0CA
:10028000E4936005516DA380F7D0E022C000C00167
:0D029000780179FFD9FED8FAD001D0002204
:0D030000524F4C4C494E472054494D45008A
:10000B00B28712001132B8010412057D22B8020426
:10001B0012058422B8030412058B22B804041205BE
:0C002B009222B8050412059922C2872217
:100500007589117C03780112057DD2A9D2AFD28CF6
:100510001205A07C03120584D2A9D2AFD28C780236
:100520001205A07C0312058BD2A9D2AFD28C78031E
:100530001205A07C03120584D2A9D2AFD28C780216
:100540001205A07C04120592D2A9D2AFD28C7804F5
:100550001205A07C0278001205A07C04120592D23C
:10056000A9D2AFD28C78041205A07C04120599D2CE
:10057000A9D2AFD28C78051205A0020500758A7D3C
:10058000758CDC22758A5E758CE022758A6D758C9F
:10059000E522758AE2758CEA22758A53758CE82209
:1005A00075F00AECA4FBB1A922B1AC22B1B1DBFC1D
:1005B00022758D3C758BB0D28E308FFDC28EC28F6E
:0105C0002218
:00000001FF
