:03000000020200F9
:1002000075A00075900051975197512C51975197B7
:100210005197748251695197900300518951977495
:10022000C35169519790030D5189616175A038C21E
:1002300080C281D2825197C282519775A00CC28030
:10024000C281D2825197C282519775A001C280C2E9
:1002500081D2825197C282519775A006C280C28115
:10026000D2825197C282519722F5A0C280C281D218
:10027000825197C282519722F5A0D280C281D28248
:100280005197C2825197519722C0E0E49360055183
:1002900078A380F7D0E022C000C001780179FFD9AF
:0802A000FED8FAD001D00022C3
:10030000454E54455220494E5055545300454533AF
:1003100033372D323032320052454144494E472066
:10032000494E5055545300434F4D505554494E4734
:1003300020524553554C54004E554D313A002C2017
:100340004E554D323A00524553554C54203D2000F5
:10035000202020202020202020202020202020209D
:10036000007590F0919874815169519790031851DC
:1003700089519774C35169519790030D51895197D1
:1003800075908F918DE59075F01084E5F0C4F5407F
:1003900075904F918DE59075F01084E5F02540F54E
:1003A0004175902F918DE59075F01084E5F0C4F5BE
:1003B0004275901F918DE59075F01084E5F025420F
:1003C000F5438541309157856045856146854330C9
:1003D00091578560478561487590007480516951D7
:1003E000979003275189918D74C05169519790035B
:1003F000385189E5455178E546517890033E518959
:10040000E5475178E5485178918D918D918DE54181
:100410008543F0A4F54985F05085493091578560B2
:100420006585616685503091578560678561687420
:100430008051695197900350518974815169519746
:100440009003465189E5675178E5685178E5655133
:1004500078E566517880FEE53075F01084B40A08BE
:100460009178F560E5F0800B917EF560E5F0B40AD7
:10047000028005917EF5612224372224302240FB40
:1004800050F6C0007803918DD8FCD00022C00078CF
:10049000029198D8FCD00022C000780591A3D8FC26
:1004A000D00022C00078C891AED8FCD00022C00095
:1004B000780491B9D8FCD00022C00078F4D8FED0DE
:0204C000002218
:00000001FF
