:03000000020200F9
:03000B00020030C0
:0C003000758C00758A00D28CD2A90C32AD
:1002000075A00075900F517F517F5114517F517F20
:10021000517F615075A038C280C281D282517FC2A5
:1002200082517F75A00CC280C281D282517FC2826E
:10023000517F75A001C280C281D282517FC282519A
:100240007F75A006C280C281D282517FC282517F57
:1002500022F5A0C280C281D282517FC282517F2208
:10026000F5A0D280C281D282517FC282517F517F5C
:1002700022C0E0E49360055160A380F7D0E022C083
:1002800000C001780179FFD9FED8FAD001D0002250
:10030000544F47474C4520535731004946204C45F0
:100310004420474C4F5753005245414354494F4E98
:100320002054494D4500434F554E54204953200019
:100330004D494C4C495345434F4E44533A200020BD
:1003400020202020202020202020202020202000CD
:1003500074835151517F9003005171517F74C25188
:1003600051517F90030B5171517F12044D12044D76
:10037000D2A9D2AFD2947C00758901758C00758AA0
:1003800000D28C3090FDC28CC2948C40858C41850B
:100390008A42C28D74805151517F90033F517151F7
:1003A0007F74C05151517F90033F5171517F7482CE
:1003B0005151517F9003185171517F74C151515166
:1003C0007F9003265171517F8C309122E5605160FE
:1003D000E5615160858C309122E5605160E56151A5
:1003E00060858A309122E5605160E5615160C2A963
:1003F00012044D12044D12044D12044D12044DEC22
:1004000075F0FFA42C74805151517F90033F5171BE
:10041000517F74C05151517F90033F5171517F0200
:100420000350E53075F01084B40A0D9143F560E592
:10043000F080009149F561229149F560E5F0B40A38
:10044000F2800024372224302240FB50F6758901C7
:100450007B28915522915822915FDBFC7B282275E5
:0F0460008C3C758AB0D28C308DFDC28CC28D223F
:00000001FF
