:0A0987004100420043004400450017
:10085500E4F5A0C282C280C2817F38FE12093B7FC7
:10086500047E001208AD7F067E0012093B7F047EE0
:10087500001208AD7F0C7E0012093B7F047E00123A
:1008850008AD7F017E0012093B7F047E001208AD92
:070895007F807E0002093B99
:10089C0012090B7FE87E031208AD1209237FE87E54
:0108AC000348
:1008AD00E4FDFCC3ED9FEC9E5015E4FBFA0BBB0081
:0F08BD00010ABA01F8BB7EF50DBD00010C80E405
:0108CC002209
:10093B00C280C281D2828FA07F0A7E001208ADC214
:02094B00822206
:10094D00D280C281D2828FA07F0A7E001208ADC2F2
:02095D008222F4
:1008CD008B088A09890AAB08AA09A90A1208F260DD
:1008DD0013050AE50A7002050914F91208F2FF1250
:0508ED00094D80E2222C
:10090B00900000B2877F017E001208ADA3E582B490
:07091B00DCF1E583B405ECFB
:0109220022B2
:10092300900000B2877F017E001208ADA3E582B478
:07093300EEF1E583B402ECD4
:01093A00229A
:06099A001208A602090B81
:0909910012089C1208A6020923B9
:0C096F0012089C12090B1208A9020923AF
:0609A00012089C0209236D
:0309A60002092320
:0F095F007F017E00EF64014E7005FE7F0180F581
:01096E002266
:1008000012085530900E7BFF7A0979871208CD12B5
:10081000099A803D30910E7BFF7A0979891208CDC3
:10082000120991802C30920E7BFF7A09798B120885
:10083000CD12096F801B7BFF30930C7A09798D12E2
:1008400008CD1209A0800A7A09798F1208CD120901
:05085000A612095F2261
:0300000002097B77
:0C097B00787FE4F6D8FD75810A020800C0
:1008F200BB010689828A83E0225002E722BBFE0204
:09090200E32289828A83E4932236
:00000001FF
