:03000000020200F9
:1002000075A000759000519D519D5132519D519D99
:10021000519D7486516F519D900300518F519D7473
:10022000C3516F519D900308518F757023757145AF
:10023000612875A038C280C281D282519DC282518C
:100240009D75A00CC280C281D282519DC282519DF7
:1002500075A001C280C281D282519DC282519D751A
:10026000A006C280C281D282519DC282519D22F5D8
:10027000A0C280C281D282519DC282519D22F5A02E
:10028000D280C281D282519DC282519D519D22C095
:10029000E0E4936005517EA380F7D0E022C000C067
:0E02A00001780179FFD9FED8FAD001D00022F2
:100300004C4556454C2031004C4556454C2032005A
:100310004C4556454C2033004C4556454C20340046
:1003200056414C55453A20007486516F519D9003BB
:1003300000518F519D74C3516F519D900320518F77
:10034000519DE57075F01084FDE5F0C4F590C4F89A
:100350005408120461517EE85404120461517EE88D
:100360005402120461517EE85401120461517E91DD
:100370003F7486516F519D900308518F519D74C3F6
:10038000516F519D900320518F519DEDC4F590C444
:10039000F85408120461517EE85404120461517E3D
:1003A000E85402120461517EE85401120461517E46
:1003B000913F7486516F519D900310518F519D74E0
:1003C000C3516F519D900320518F519DE57175F080
:1003D0001084FDE5F0C4F590C4F85408120461518E
:1003E0007EE85404120461517EE854021204615103
:1003F0007EE85401120461517E913F7486516F5121
:100400009D900318518F519D74C3516F519D90035E
:1004100020518F519DEDC4F590C4F8540812046129
:10042000517EE85404120461517EE85402120461C2
:10043000517EE85401120461517E913F02032875F8
:0E04400089017B28914722914A229151DBFCD1
:10044E007B2822758C3C758AB0D28C308DFDC28C87
:0E045E00C28D22600370042274302274312299
:00000001FF
