:03000000020A4EA3
:0C0A4E00787FE4F6D8FD75812E020A9531
:100800005072657373204120666F72204163636F7D
:10081000756E7420646973706C617920616E6420F8
:100820005720666F72207769746864726177696EA9
:100830006720636173680D0A0048656C6C6F2C203B
:10084000506C6561736520656E74657220416363E9
:100850006F756E74204E756D6265720D0A0041638E
:10086000636F756E7420486F6C6465723A205369CB
:1008700074610D0A004163636F756E742042616C90
:10088000616E63653A2031303030300D0A004163CB
:10089000636F756E7420486F6C6465723A204769A7
:1008A00074610D0A004E6F207375636820416363A5
:1008B0006F756E742E20506C6561736520656E7463
:1008C00065722076616C69642064657461696C731B
:1008D0000D0A004C4544207465737465640D0A006C
:1008E000496E636F727265637420746573742E2031
:1008F0005061737320636F7272656374206E756DDF
:060900006265720D0A00A1
:100B8700C101C100060E00000000000006080000B9
:100B97000000000003170000000314000000051AFE
:050BA700000000000049
:0F0BE200758920758DF3759850D28E75A8902265
:100906008E218F228B238A2489257C277D1012092C
:10091600F9EF24301209C5AE21AF227C277D1012D3
:1009260009F97E037FE8CFCDCFCECCCE1209F9EF01
:100936002430AB23AA24A9259000011209D7AE21A1
:10094600AF227C037DE81209F97E007F64CFCDCF0C
:10095600CECCCE1209F9EF2430AB23AA24A92590D8
:1009660000021209D7AE21AF227C007D641209F97C
:100976007E007F0ACFCDCFCECCCE1209F9EF243040
:10098600AB23AA24A9259000031209D7AE21AF22D2
:100996007C007D0A1209F9ED2430AB23AA24A9258F
:0609A6009000040209D7D5
:100B49008E268F278B288A29892A7C007D0A1209FB
:100B5900F97E007F0ACFCDCFCECCCE1209F9EF2492
:100B6900301209C5AE26AF277C007D0A1209F9EDBE
:0E0B79002430AB28AA29A92A9000010209D72E
:080BFB008F993001FDC20122B7
:100BAD008B2C8A2D892EAB2CAA2DA92E1209AC6067
:100BBD0013052EE52E7002052D14F91209ACFF1246
:050BCD000BFB80E22299
:090BF100E4FF3000FDC200AF99E1
:010BFA0022D8
:03002300020BD2FB
:100BD200309905C299D20132309804C298D20032BB
:100ADA00E4F52B120BE27BFF7A0879008051120BA6
:100AEA00F18F2BE52B24A96040241670477BFF7AEF
:100AFA00087939120BAD120BF18F2BE52B24CE603E
:100B0A000B0470197BFF7A08795E80067BFF7A08EE
:100B1A00798E120BAD7BFF7A08797580067BFF7A96
:100B2A000879A5120BAD120ADA7BFF7A0879D3127B
:0F0B3A000BAD80AA7BFF7A0879E0120BAD809F8C
:100A5A00020ADAE493A3F8E493A34003F68001F2CE
:100A6A0008DFF48029E493A3F85407240CC8C3339D
:100A7A00C4540F4420C8834004F456800146F6DF6C
:100A8A00E4800B0102040810204080900B87E47E6A
:100A9A00019360BCA3FF543F30E509541FFEE49361
:100AAA00A360010ECF54C025E060A840B8E493A328
:100ABA00FAE493A3F8E493A3C8C582C8CAC583CA53
:100ACA00F0A3C8C582C8CAC583CADFE9DEE780BE0B
:010BAC000048
:1009AC00BB010689828A83E0225002E722BBFE0249
:0909BC00E32289828A83E493227C
:1009C500BB010689828A83F0225002F722BBFE0111
:0209D500F3220B
:1009D700F8BB010DE58229F582E5833AF583E8F056
:1009E700225006E92582C8F622BBFE05E92582C802
:0209F700F222EA
:1009F900BC000BBE0029EF8DF084FFADF022E4CCE2
:100A0900F875F008EF2FFFEE33FEEC33FCEE9DECAA
:100A1900984005FCEE9DFE0FD5F0E9E4CEFD22EDF0
:100A2900F8F5F0EE8420D21CFEADF075F008EF2F3A
:100A3900FFED33FD4007985006D5F0F222C398FD2B
:050A49000FD5F0EA22C8
:00000001FF
