:030000000209FEF4
:0C09FE00787FE4F6D8FD758120020A45E0
:10080000454520333337004C4544205465737465A7
:1008100064002A2A2A2A2A2A2A2A2A2A2A2A2A2A28
:100820002A2A2A2A2A2A2A2A2A2A0D0A002A2A2A8F
:100830002A2A2A383035312054657374732A2A2ABB
:100840002A2A2A2A2A0D0A00507265737320312041
:10085000666F72204C434420746573740D0A005017
:1008600072657373203220666F72204C4544207489
:100870006573740D0A004C43442074657374656499
:100880000D0A004C4544207465737465640D0A00BC
:10089000496E636F727265637420746573742E2081
:1008A0005061737320636F7272656374206E756D2F
:0608B0006265720D0A00F2
:040C4100C101C1002C
:100AED00E4F5A0C282C280C2817F38FE120BEC12E7
:100AFD000BAA7F067E00120BEC120BAA7F0C7E0058
:100B0D00120BEC120BAA7F017E00120BEC120BAA3A
:070B1D007F807E00020BEC5B
:040BAA007F047E0046
:100BAE00E4FDFCC3ED9FEC9E5015E4FBFA0BBB007D
:0F0BBE00010ABA01F8BB7EF50DBD00010C80E401
:010BCD002205
:1008B6008E088F098B0A8A0B890C7C277D101209FA
:1008C600A9EF2430120975AE08AF097C277D1012F6
:1008D60009A97E037FE8CFCDCFCECCCE1209A9EFF2
:1008E6002430AB0AAA0BA90C900001120987AE08A6
:1008F600AF097C037DE81209A97E007F64CFCDCFC6
:10090600CECCCE1209A9EF2430AB0AAA0BA90C90C3
:100916000002120987AE08AF097C007D641209A99E
:100926007E007F0ACFCDCFCECCCE1209A9EF2430E0
:10093600AB0AAA0BA90C900003120987AE08AF09EF
:100946007C007D0A1209A9ED2430AB0AAA0BA90C7A
:0609560090000402098775
:100BEC00C280C281D2828FA07F0A7E00120BAEC25D
:020BFC00822253
:100BFE00D280C281D2828FA07F0A7E00120BAEC23B
:020C0E00822240
:100B85008B0E8A0F8910AB0EAA0FA91012095C6093
:100B9500130510E5107002050F14F912095CFF1218
:050BA5000BFE80E222BE
:0F0C2000758920758DF3759850D28E75A8902226
:080C39008F993001FDC2012278
:060B5A007BFF7A0879120E
:100B60008B0E8A0F8910AB0EAA0FA91012095C60B8
:100B7000130510E5107002050F14F912095CFF123D
:050B80000C3980E222A7
:090C2F00E4FF3000FDC200AF99A2
:010C38002299
:03002300020C10BC
:100C1000309905C299D20132309804C298D200327C
:100BCE007F807E00120BEC7BFF7A087900120B857A
:0E0BDE007FD07E07120BAE7F017E00020BEC73
:100B24007F807E00120BEC4390107FE87E03120B53
:100B3400AE439020120BAE439040120BAE43908014
:100B4400120BAE53900F7BFF7A087907120B857F47
:060B5400017E00020BEC23
:100A8A00E4F50D75900F120AED120C20120B5A7B29
:100A9A00FF7A08792D120B60120B5A7BFF7A0879BC
:100AAA0048120B607BFF7A08795F120B60120C2FD9
:100ABA008F0DE50D24CE600E047016120BCE7BFF4F
:100ACA007A0879768011120B247BFF7A0879838061
:100ADA00067BFF7A087990120B607F647E00120B06
:030AEA00AE80CA11
:100A0A00020A8AE493A3F8E493A34003F68001F26E
:100A1A0008DFF48029E493A3F85407240CC8C333ED
:100A2A00C4540F4420C8834004F456800146F6DFBC
:100A3A00E4800B0102040810204080900C41E47EFF
:100A4A00019360BCA3FF543F30E509541FFEE493B1
:100A5A00A360010ECF54C025E060A840B8E493A378
:100A6A00FAE493A3F8E493A3C8C582C8CAC583CAA3
:100A7A00F0A3C8C582C8CAC583CADFE9DEE780BE5B
:010C450000AE
:10095C00BB010689828A83E0225002E722BBFE0299
:09096C00E32289828A83E49322CC
:10097500BB010689828A83F0225002F722BBFE0161
:02098500F3225B
:10098700F8BB010DE58229F582E5833AF583E8F0A6
:10099700225006E92582C8F622BBFE05E92582C852
:0209A700F2223A
:1009A900BC000BBE0029EF8DF084FFADF022E4CC32
:1009B900F875F008EF2FFFEE33FEEC33FCEE9DECFB
:1009C900984005FCEE9DFE0FD5F0E9E4CEFD22ED41
:1009D900F8F5F0EE8420D21CFEADF075F008EF2F8B
:1009E900FFED33FD4007985006D5F0F222C398FD7C
:0509F9000FD5F0EA2219
:00000001FF
